{
  "contractName": "Voting",
  "abi": [
    {
      "inputs": [],
      "stateMutability": "nonpayable",
      "type": "constructor"
    },
    {
      "anonymous": false,
      "inputs": [
        {
          "indexed": true,
          "internalType": "address",
          "name": "voter",
          "type": "address"
        },
        {
          "indexed": true,
          "internalType": "uint256",
          "name": "candidateId",
          "type": "uint256"
        }
      ],
      "name": "VoteEvent",
      "type": "event"
    },
    {
      "inputs": [],
      "name": "candidateCount",
      "outputs": [
        {
          "internalType": "uint256",
          "name": "",
          "type": "uint256"
        }
      ],
      "stateMutability": "view",
      "type": "function"
    },
    {
      "inputs": [
        {
          "internalType": "uint256",
          "name": "id",
          "type": "uint256"
        }
      ],
      "name": "getCandidate",
      "outputs": [
        {
          "components": [
            {
              "internalType": "uint256",
              "name": "id",
              "type": "uint256"
            },
            {
              "internalType": "string",
              "name": "name",
              "type": "string"
            },
            {
              "internalType": "uint256",
              "name": "voteCount",
              "type": "uint256"
            }
          ],
          "internalType": "struct Voting.Candidate",
          "name": "candidate",
          "type": "tuple"
        }
      ],
      "stateMutability": "view",
      "type": "function"
    },
    {
      "inputs": [],
      "name": "getAllCandidates",
      "outputs": [
        {
          "internalType": "string[]",
          "name": "names",
          "type": "string[]"
        },
        {
          "internalType": "uint256[]",
          "name": "voteCounts",
          "type": "uint256[]"
        }
      ],
      "stateMutability": "view",
      "type": "function"
    },
    {
      "inputs": [
        {
          "internalType": "uint256",
          "name": "id",
          "type": "uint256"
        }
      ],
      "name": "vote",
      "outputs": [],
      "stateMutability": "payable",
      "type": "function"
    }
  ],
  "bytecode": "0x60806040525f60025534801562000014575f80fd5b506200005b6040518060400160405280600881526020017f43617420f09f9088000000000000000000000000000000000000000000000000815250620001bf60201b60201c565b620000a16040518060400160405280600881526020017f446f6720f09f9095000000000000000000000000000000000000000000000000815250620001bf60201b60201c565b620000e76040518060400160405280600b81526020017f547572746c6520f09f90a2000000000000000000000000000000000000000000815250620001bf60201b60201c565b6200012d6040518060400160405280600981526020017f4669736820f09f909f0000000000000000000000000000000000000000000000815250620001bf60201b60201c565b620001736040518060400160405280600981526020017f4269726420f09f90a60000000000000000000000000000000000000000000000815250620001bf60201b60201c565b620001b96040518060400160405280600a81526020017f536e616b6520f09f908d00000000000000000000000000000000000000000000815250620001bf60201b60201c565b620005e8565b604051806060016040528060025481526020018281526020015f8152505f8060025481526020019081526020015f205f820151815f015560208201518160010190816200020d91906200049d565b5060408201518160020155905050600160025f8282546200022f9190620005ae565b9250508190555050565b5f81519050919050565b7f4e487b71000000000000000000000000000000000000000000000000000000005f52604160045260245ffd5b7f4e487b71000000000000000000000000000000000000000000000000000000005f52602260045260245ffd5b5f6002820490506001821680620002b557607f821691505b602082108103620002cb57620002ca62000270565b5b50919050565b5f819050815f5260205f209050919050565b5f6020601f8301049050919050565b5f82821b905092915050565b5f600883026200032f7fffffffffffffffffffffffffffffffffffffffffffffffffffffffffffffffff82620002f2565b6200033b8683620002f2565b95508019841693508086168417925050509392505050565b5f819050919050565b5f819050919050565b5f620003856200037f620003798462000353565b6200035c565b62000353565b9050919050565b5f819050919050565b620003a08362000365565b620003b8620003af826200038c565b848454620002fe565b825550505050565b5f90565b620003ce620003c0565b620003db81848462000395565b505050565b5b818110156200040257620003f65f82620003c4565b600181019050620003e1565b5050565b601f82111562000451576200041b81620002d1565b6200042684620002e3565b8101602085101562000436578190505b6200044e6200044585620002e3565b830182620003e0565b50505b505050565b5f82821c905092915050565b5f620004735f198460080262000456565b1980831691505092915050565b5f6200048d838362000462565b9150826002028217905092915050565b620004a88262000239565b67ffffffffffffffff811115620004c457620004c362000243565b5b620004d082546200029d565b620004dd82828562000406565b5f60209050601f83116001811462000513575f8415620004fe578287015190505b6200050a858262000480565b86555062000579565b601f1984166200052386620002d1565b5f5b828110156200054c5784890151825560018201915060208501945060208101905062000525565b868310156200056c578489015162000568601f89168262000462565b8355505b6001600288020188555050505b505050505050565b7f4e487b71000000000000000000000000000000000000000000000000000000005f52601160045260245ffd5b5f620005ba8262000353565b9150620005c78362000353565b9250828201905080821115620005e257620005e162000581565b5b92915050565b610c1d80620005f65f395ff3fe60806040526004361061003e575f3560e01c80630121b93f146100425780632e6997fe1461005e57806335b8e82014610089578063a9a981a3146100c5575b5f80fd5b61005c600480360381019061005791906105e3565b6100ef565b005b348015610069575f80fd5b506100726102ca565b60405161008092919061080a565b60405180910390f35b348015610094575f80fd5b506100af60048036038101906100aa91906105e3565b610475565b6040516100bc919061088c565b60405180910390f35b3480156100d0575f80fd5b506100d9610587565b6040516100e691906108bb565b60405180910390f35b60015f3373ffffffffffffffffffffffffffffffffffffffff1673ffffffffffffffffffffffffffffffffffffffff1681526020019081526020015f205f9054906101000a900460ff1615610179576040517f08c379a00000000000000000000000000000000000000000000000000000000081526004016101709061092e565b60405180910390fd5b6002548111156101be576040517f08c379a00000000000000000000000000000000000000000000000000000000081526004016101b590610996565b60405180910390fd5b64e8d4a510003414610205576040517f08c379a00000000000000000000000000000000000000000000000000000000081526004016101fc90610a24565b60405180910390fd5b6001805f3373ffffffffffffffffffffffffffffffffffffffff1673ffffffffffffffffffffffffffffffffffffffff1681526020019081526020015f205f6101000a81548160ff02191690831515021790555060015f808381526020019081526020015f206002015f82825461027c9190610a6f565b92505081905550803373ffffffffffffffffffffffffffffffffffffffff167f6fd5d288b0fab89a7ee63c33c6d0430a5a3f813cf781179f3a8b3d46041a5d5a60405160405180910390a350565b60608060025467ffffffffffffffff8111156102e9576102e8610aa2565b5b60405190808252806020026020018201604052801561031c57816020015b60608152602001906001900390816103075790505b50915060025467ffffffffffffffff81111561033b5761033a610aa2565b5b6040519080825280602002602001820160405280156103695781602001602082028036833780820191505090505b5090505f5b600254811015610470575f808281526020019081526020015f20600101805461039690610afc565b80601f01602080910402602001604051908101604052809291908181526020018280546103c290610afc565b801561040d5780601f106103e45761010080835404028352916020019161040d565b820191905f5260205f20905b8154815290600101906020018083116103f057829003601f168201915b505050505083828151811061042557610424610b2c565b5b60200260200101819052505f808281526020019081526020015f206002015482828151811061045757610456610b2c565b5b602002602001018181525050808060010191505061036e565b509091565b61047d61058d565b6002548211156104c2576040517f08c379a00000000000000000000000000000000000000000000000000000000081526004016104b990610bc9565b60405180910390fd5b5f808381526020019081526020015f206040518060600160405290815f82015481526020016001820180546104f690610afc565b80601f016020809104026020016040519081016040528092919081815260200182805461052290610afc565b801561056d5780601f106105445761010080835404028352916020019161056d565b820191905f5260205f20905b81548152906001019060200180831161055057829003601f168201915b505050505081526020016002820154815250509050919050565b60025481565b60405180606001604052805f8152602001606081526020015f81525090565b5f80fd5b5f819050919050565b6105c2816105b0565b81146105cc575f80fd5b50565b5f813590506105dd816105b9565b92915050565b5f602082840312156105f8576105f76105ac565b5b5f610605848285016105cf565b91505092915050565b5f81519050919050565b5f82825260208201905092915050565b5f819050602082019050919050565b5f81519050919050565b5f82825260208201905092915050565b5f5b8381101561066e578082015181840152602081019050610653565b5f8484015250505050565b5f601f19601f8301169050919050565b5f61069382610637565b61069d8185610641565b93506106ad818560208601610651565b6106b681610679565b840191505092915050565b5f6106cc8383610689565b905092915050565b5f602082019050919050565b5f6106ea8261060e565b6106f48185610618565b93508360208202850161070685610628565b805f5b85811015610741578484038952815161072285826106c1565b945061072d836106d4565b925060208a01995050600181019050610709565b50829750879550505050505092915050565b5f81519050919050565b5f82825260208201905092915050565b5f819050602082019050919050565b610785816105b0565b82525050565b5f610796838361077c565b60208301905092915050565b5f602082019050919050565b5f6107b882610753565b6107c2818561075d565b93506107cd8361076d565b805f5b838110156107fd5781516107e4888261078b565b97506107ef836107a2565b9250506001810190506107d0565b5085935050505092915050565b5f6040820190508181035f83015261082281856106e0565b9050818103602083015261083681846107ae565b90509392505050565b5f606083015f8301516108545f86018261077c565b506020830151848203602086015261086c8282610689565b9150506040830151610881604086018261077c565b508091505092915050565b5f6020820190508181035f8301526108a4818461083f565b905092915050565b6108b5816105b0565b82525050565b5f6020820190506108ce5f8301846108ac565b92915050565b5f82825260208201905092915050565b7f5b766f74655d3a20596f75206861766520616c726561647920766f74656421005f82015250565b5f610918601f836108d4565b9150610923826108e4565b602082019050919050565b5f6020820190508181035f8301526109458161090c565b9050919050565b7f5b766f74655d3a204944206e6f7420666f756e642100000000000000000000005f82015250565b5f6109806015836108d4565b915061098b8261094c565b602082019050919050565b5f6020820190508181035f8301526109ad81610974565b9050919050565b7f5b766f74655d3a20596f75206e65656420746f2073656e6420313030302067775f8201527f65692028302e3030303030312065746865722920746f20766f74652100000000602082015250565b5f610a0e603c836108d4565b9150610a19826109b4565b604082019050919050565b5f6020820190508181035f830152610a3b81610a02565b9050919050565b7f4e487b71000000000000000000000000000000000000000000000000000000005f52601160045260245ffd5b5f610a79826105b0565b9150610a84836105b0565b9250828201905080821115610a9c57610a9b610a42565b5b92915050565b7f4e487b71000000000000000000000000000000000000000000000000000000005f52604160045260245ffd5b7f4e487b71000000000000000000000000000000000000000000000000000000005f52602260045260245ffd5b5f6002820490506001821680610b1357607f821691505b602082108103610b2657610b25610acf565b5b50919050565b7f4e487b71000000000000000000000000000000000000000000000000000000005f52603260045260245ffd5b7f5b67657443616e6469646174655d3a20494420697320677265617465722074685f8201527f616e2063616e64696461746520636f756e742100000000000000000000000000602082015250565b5f610bb36033836108d4565b9150610bbe82610b59565b604082019050919050565b5f6020820190508181035f830152610be081610ba7565b905091905056fea26469706673582212205e0d86ff800c3d95f055b859dee33b547189f49219892faa0c52e73f4813b30c64736f6c63430008170033",
  "immutableReferences": {},
  "source": "// SPDX-License-Identifier: MIT\r\npragma solidity >=0.7.0 <0.9.0;\r\n\r\ncontract Voting {\r\n    struct Candidate {\r\n        uint256 id;\r\n        string name;\r\n        uint256 voteCount;\r\n    }\r\n\r\n    mapping(uint256 => Candidate) private candidateLookup;\r\n    mapping(address => bool) private voterLookup;\r\n\r\n    uint256 public candidateCount = 0;\r\n\r\n    event VoteEvent(address indexed voter, uint256 indexed candidateId);\r\n\r\n    constructor() {\r\n        addCandidate(unicode\"Cat \");\r\n        addCandidate(unicode\"Dog \");\r\n        addCandidate(unicode\"Turtle \");\r\n        addCandidate(unicode\"Fish \");\r\n        addCandidate(unicode\"Bird \");\r\n        addCandidate(unicode\"Snake \");\r\n    }\r\n\r\n    function addCandidate(string memory name) private {\r\n        candidateLookup[candidateCount] = Candidate(candidateCount, name, 0);\r\n        candidateCount += 1;\r\n    }\r\n\r\n    function getCandidate(uint256 id)\r\n        external\r\n        view\r\n        returns (Candidate memory candidate)\r\n    {\r\n        require(\r\n            id <= candidateCount,\r\n            \"[getCandidate]: ID is greater than candidate count!\"\r\n        );\r\n        candidate = candidateLookup[id];\r\n    }\r\n\r\n    function getAllCandidates()\r\n        external\r\n        view\r\n        returns (string[] memory names, uint256[] memory voteCounts)\r\n    {\r\n        names = new string[](candidateCount);\r\n        voteCounts = new uint256[](candidateCount);\r\n\r\n        for (uint256 i = 0; i < candidateCount; i++) {\r\n            names[i] = candidateLookup[i].name;\r\n            voteCounts[i] = candidateLookup[i].voteCount;\r\n        }\r\n    }\r\n\r\n    function vote(uint256 id) external payable {\r\n        require(!voterLookup[msg.sender], \"[vote]: You have already voted!\");\r\n        require(id <= candidateCount, \"[vote]: ID not found!\");\r\n        require(\r\n            msg.value == 1000 gwei,\r\n            \"[vote]: You need to send 1000 gwei (0.000001 ether) to vote!\"\r\n        );\r\n\r\n        voterLookup[msg.sender] = true;\r\n        candidateLookup[id].voteCount += 1;\r\n\r\n        emit VoteEvent(msg.sender, id);\r\n    }\r\n}\r\n",
  "sourcePath": "C:\\Users\\Klaus\\source\\simplified-blockchain\\Lab 03\\contracts\\Voting.sol",
  "compiler": {
    "name": "solc",
    "version": "0.8.23+commit.f704f362.Emscripten.clang"
  },
  "schemaVersion": "3.4.16",
  "updatedAt": "2023-12-25T15:47:47.670Z",
  "devdoc": {
    "kind": "dev",
    "methods": {},
    "version": 1
  },
  "userdoc": {
    "kind": "user",
    "methods": {},
    "version": 1
  }
}