{
  "_format": "hh-sol-artifact-1",
  "contractName": "Voting",
  "sourceName": "contracts/Voting.sol",
  "abi": [
    {
      "inputs": [],
      "stateMutability": "nonpayable",
      "type": "constructor"
    },
    {
      "anonymous": false,
      "inputs": [
        {
          "indexed": true,
          "internalType": "address",
          "name": "voter",
          "type": "address"
        },
        {
          "indexed": true,
          "internalType": "uint256",
          "name": "candidateId",
          "type": "uint256"
        }
      ],
      "name": "VoteEvent",
      "type": "event"
    },
    {
      "inputs": [],
      "name": "candidateCount",
      "outputs": [
        {
          "internalType": "uint256",
          "name": "",
          "type": "uint256"
        }
      ],
      "stateMutability": "view",
      "type": "function"
    },
    {
      "inputs": [],
      "name": "getAllCandidates",
      "outputs": [
        {
          "internalType": "string[]",
          "name": "names",
          "type": "string[]"
        },
        {
          "internalType": "uint256[]",
          "name": "voteCounts",
          "type": "uint256[]"
        }
      ],
      "stateMutability": "view",
      "type": "function"
    },
    {
      "inputs": [
        {
          "internalType": "uint256",
          "name": "id",
          "type": "uint256"
        }
      ],
      "name": "getCandidate",
      "outputs": [
        {
          "components": [
            {
              "internalType": "uint256",
              "name": "id",
              "type": "uint256"
            },
            {
              "internalType": "string",
              "name": "name",
              "type": "string"
            },
            {
              "internalType": "uint256",
              "name": "voteCount",
              "type": "uint256"
            }
          ],
          "internalType": "struct Voting.Candidate",
          "name": "candidate",
          "type": "tuple"
        }
      ],
      "stateMutability": "view",
      "type": "function"
    },
    {
      "inputs": [
        {
          "internalType": "uint256",
          "name": "id",
          "type": "uint256"
        }
      ],
      "name": "vote",
      "outputs": [],
      "stateMutability": "payable",
      "type": "function"
    }
  ],
  "bytecode": "0x608060405260006002553480156200001657600080fd5b506200005d6040518060400160405280600881526020017f43617420f09f9088000000000000000000000000000000000000000000000000815250620001c160201b60201c565b620000a36040518060400160405280600881526020017f446f6720f09f9095000000000000000000000000000000000000000000000000815250620001c160201b60201c565b620000e96040518060400160405280600b81526020017f547572746c6520f09f90a2000000000000000000000000000000000000000000815250620001c160201b60201c565b6200012f6040518060400160405280600981526020017f4669736820f09f909f0000000000000000000000000000000000000000000000815250620001c160201b60201c565b620001756040518060400160405280600981526020017f4269726420f09f90a60000000000000000000000000000000000000000000000815250620001c160201b60201c565b620001bb6040518060400160405280600a81526020017f536e616b6520f09f908d00000000000000000000000000000000000000000000815250620001c160201b60201c565b6200060c565b6040518060600160405280600254815260200182815260200160008152506000806002548152602001908152602001600020600082015181600001556020820151816001019081620002149190620004bb565b5060408201518160020155905050600160026000828254620002379190620005d1565b9250508190555050565b600081519050919050565b7f4e487b7100000000000000000000000000000000000000000000000000000000600052604160045260246000fd5b7f4e487b7100000000000000000000000000000000000000000000000000000000600052602260045260246000fd5b60006002820490506001821680620002c357607f821691505b602082108103620002d957620002d86200027b565b5b50919050565b60008190508160005260206000209050919050565b60006020601f8301049050919050565b600082821b905092915050565b600060088302620003437fffffffffffffffffffffffffffffffffffffffffffffffffffffffffffffffff8262000304565b6200034f868362000304565b95508019841693508086168417925050509392505050565b6000819050919050565b6000819050919050565b60006200039c62000396620003908462000367565b62000371565b62000367565b9050919050565b6000819050919050565b620003b8836200037b565b620003d0620003c782620003a3565b84845462000311565b825550505050565b600090565b620003e7620003d8565b620003f4818484620003ad565b505050565b5b818110156200041c5762000410600082620003dd565b600181019050620003fa565b5050565b601f8211156200046b576200043581620002df565b6200044084620002f4565b8101602085101562000450578190505b620004686200045f85620002f4565b830182620003f9565b50505b505050565b600082821c905092915050565b6000620004906000198460080262000470565b1980831691505092915050565b6000620004ab83836200047d565b9150826002028217905092915050565b620004c68262000241565b67ffffffffffffffff811115620004e257620004e16200024c565b5b620004ee8254620002aa565b620004fb82828562000420565b600060209050601f8311600181146200053357600084156200051e578287015190505b6200052a85826200049d565b8655506200059a565b601f1984166200054386620002df565b60005b828110156200056d5784890151825560018201915060208501945060208101905062000546565b868310156200058d578489015162000589601f8916826200047d565b8355505b6001600288020188555050505b505050505050565b7f4e487b7100000000000000000000000000000000000000000000000000000000600052601160045260246000fd5b6000620005de8262000367565b9150620005eb8362000367565b9250828201905080821115620006065762000605620005a2565b5b92915050565b610c77806200061c6000396000f3fe60806040526004361061003f5760003560e01c80630121b93f146100445780632e6997fe1461006057806335b8e8201461008c578063a9a981a3146100c9575b600080fd5b61005e60048036038101906100599190610603565b6100f4565b005b34801561006c57600080fd5b506100756102d8565b604051610083929190610840565b60405180910390f35b34801561009857600080fd5b506100b360048036038101906100ae9190610603565b61048a565b6040516100c091906108c7565b60405180910390f35b3480156100d557600080fd5b506100de6105a1565b6040516100eb91906108f8565b60405180910390f35b600160003373ffffffffffffffffffffffffffffffffffffffff1673ffffffffffffffffffffffffffffffffffffffff16815260200190815260200160002060009054906101000a900460ff1615610181576040517f08c379a000000000000000000000000000000000000000000000000000000000815260040161017890610970565b60405180910390fd5b6002548111156101c6576040517f08c379a00000000000000000000000000000000000000000000000000000000081526004016101bd906109dc565b60405180910390fd5b64e8d4a51000341461020d576040517f08c379a000000000000000000000000000000000000000000000000000000000815260040161020490610a6e565b60405180910390fd5b60018060003373ffffffffffffffffffffffffffffffffffffffff1673ffffffffffffffffffffffffffffffffffffffff16815260200190815260200160002060006101000a81548160ff0219169083151502179055506001600080838152602001908152602001600020600201600082825461028a9190610abd565b92505081905550803373ffffffffffffffffffffffffffffffffffffffff167f6fd5d288b0fab89a7ee63c33c6d0430a5a3f813cf781179f3a8b3d46041a5d5a60405160405180910390a350565b60608060025467ffffffffffffffff8111156102f7576102f6610af1565b5b60405190808252806020026020018201604052801561032a57816020015b60608152602001906001900390816103155790505b50915060025467ffffffffffffffff81111561034957610348610af1565b5b6040519080825280602002602001820160405280156103775781602001602082028036833780820191505090505b50905060005b6002548110156104855760008082815260200190815260200160002060010180546103a790610b4f565b80601f01602080910402602001604051908101604052809291908181526020018280546103d390610b4f565b80156104205780601f106103f557610100808354040283529160200191610420565b820191906000526020600020905b81548152906001019060200180831161040357829003601f168201915b505050505083828151811061043857610437610b80565b5b60200260200101819052506000808281526020019081526020016000206002015482828151811061046c5761046b610b80565b5b602002602001018181525050808060010191505061037d565b509091565b6104926105a7565b6002548211156104d7576040517f08c379a00000000000000000000000000000000000000000000000000000000081526004016104ce90610c21565b60405180910390fd5b6000808381526020019081526020016000206040518060600160405290816000820154815260200160018201805461050e90610b4f565b80601f016020809104026020016040519081016040528092919081815260200182805461053a90610b4f565b80156105875780601f1061055c57610100808354040283529160200191610587565b820191906000526020600020905b81548152906001019060200180831161056a57829003601f168201915b505050505081526020016002820154815250509050919050565b60025481565b60405180606001604052806000815260200160608152602001600081525090565b600080fd5b6000819050919050565b6105e0816105cd565b81146105eb57600080fd5b50565b6000813590506105fd816105d7565b92915050565b600060208284031215610619576106186105c8565b5b6000610627848285016105ee565b91505092915050565b600081519050919050565b600082825260208201905092915050565b6000819050602082019050919050565b600081519050919050565b600082825260208201905092915050565b60005b8381101561069657808201518184015260208101905061067b565b60008484015250505050565b6000601f19601f8301169050919050565b60006106be8261065c565b6106c88185610667565b93506106d8818560208601610678565b6106e1816106a2565b840191505092915050565b60006106f883836106b3565b905092915050565b6000602082019050919050565b600061071882610630565b610722818561063b565b9350836020820285016107348561064c565b8060005b85811015610770578484038952815161075185826106ec565b945061075c83610700565b925060208a01995050600181019050610738565b50829750879550505050505092915050565b600081519050919050565b600082825260208201905092915050565b6000819050602082019050919050565b6107b7816105cd565b82525050565b60006107c983836107ae565b60208301905092915050565b6000602082019050919050565b60006107ed82610782565b6107f7818561078d565b93506108028361079e565b8060005b8381101561083357815161081a88826107bd565b9750610825836107d5565b925050600181019050610806565b5085935050505092915050565b6000604082019050818103600083015261085a818561070d565b9050818103602083015261086e81846107e2565b90509392505050565b600060608301600083015161088f60008601826107ae565b50602083015184820360208601526108a782826106b3565b91505060408301516108bc60408601826107ae565b508091505092915050565b600060208201905081810360008301526108e18184610877565b905092915050565b6108f2816105cd565b82525050565b600060208201905061090d60008301846108e9565b92915050565b600082825260208201905092915050565b7f5b766f74655d3a20596f75206861766520616c726561647920766f7465642100600082015250565b600061095a601f83610913565b915061096582610924565b602082019050919050565b600060208201905081810360008301526109898161094d565b9050919050565b7f5b766f74655d3a204944206e6f7420666f756e64210000000000000000000000600082015250565b60006109c6601583610913565b91506109d182610990565b602082019050919050565b600060208201905081810360008301526109f5816109b9565b9050919050565b7f5b766f74655d3a20596f75206e65656420746f2073656e64203130303020677760008201527f65692028302e3030303030312065746865722920746f20766f74652100000000602082015250565b6000610a58603c83610913565b9150610a63826109fc565b604082019050919050565b60006020820190508181036000830152610a8781610a4b565b9050919050565b7f4e487b7100000000000000000000000000000000000000000000000000000000600052601160045260246000fd5b6000610ac8826105cd565b9150610ad3836105cd565b9250828201905080821115610aeb57610aea610a8e565b5b92915050565b7f4e487b7100000000000000000000000000000000000000000000000000000000600052604160045260246000fd5b7f4e487b7100000000000000000000000000000000000000000000000000000000600052602260045260246000fd5b60006002820490506001821680610b6757607f821691505b602082108103610b7a57610b79610b20565b5b50919050565b7f4e487b7100000000000000000000000000000000000000000000000000000000600052603260045260246000fd5b7f5b67657443616e6469646174655d3a204944206973206772656174657220746860008201527f616e2063616e64696461746520636f756e742100000000000000000000000000602082015250565b6000610c0b603383610913565b9150610c1682610baf565b604082019050919050565b60006020820190508181036000830152610c3a81610bfe565b905091905056fea26469706673582212204f51bfaad346b8f63a3748f7e011a8b1beecf4cbc6f70c0aae0c065e96d14e2264736f6c63430008170033",
  "linkReferences": {},
  "deployedLinkReferences": {}
}